{
  "contractName": "AIMarketPlace",
  "abi": [
    {
      "anonymous": false,
      "inputs": [
        {
          "indexed": false,
          "internalType": "string",
          "name": "message",
          "type": "string"
        }
      ],
      "name": "Failure",
      "type": "event"
    },
    {
      "anonymous": false,
      "inputs": [
        {
          "indexed": false,
          "internalType": "string",
          "name": "message",
          "type": "string"
        }
      ],
      "name": "Success",
      "type": "event"
    },
    {
      "inputs": [],
      "name": "getModelName",
      "outputs": [
        {
          "internalType": "string",
          "name": "",
          "type": "string"
        }
      ],
      "stateMutability": "view",
      "type": "function",
      "constant": true
    },
    {
      "inputs": [],
      "name": "model",
      "outputs": [
        {
          "internalType": "string",
          "name": "",
          "type": "string"
        }
      ],
      "stateMutability": "view",
      "type": "function",
      "constant": true
    },
    {
      "inputs": [
        {
          "internalType": "string",
          "name": "n1",
          "type": "string"
        },
        {
          "internalType": "string",
          "name": "n2",
          "type": "string"
        },
        {
          "internalType": "string",
          "name": "n3",
          "type": "string"
        },
        {
          "internalType": "string",
          "name": "n4",
          "type": "string"
        },
        {
          "internalType": "string",
          "name": "model_name",
          "type": "string"
        },
        {
          "internalType": "string[]",
          "name": "_mods",
          "type": "string[]"
        }
      ],
      "name": "verifyProofs",
      "outputs": [],
      "stateMutability": "nonpayable",
      "type": "function"
    },
    {
      "inputs": [],
      "name": "getModels",
      "outputs": [
        {
          "internalType": "string",
          "name": "",
          "type": "string"
        }
      ],
      "stateMutability": "view",
      "type": "function",
      "constant": true
    },
    {
      "inputs": [
        {
          "internalType": "string",
          "name": "_name",
          "type": "string"
        }
      ],
      "name": "buyModel",
      "outputs": [
        {
          "internalType": "string",
          "name": "",
          "type": "string"
        }
      ],
      "stateMutability": "nonpayable",
      "type": "function"
    }
  ],
  "bytecode": "0x608060405234801561001057600080fd5b50610f3f806100206000396000f3fe608060405234801561001057600080fd5b50600436106100575760003560e01c806309817d451461005c5780630ad9d0521461007a57806371b83e001461009857806381c8d68d146100b6578063cd4412e6146100e6575b600080fd5b610064610102565b6040516100719190610847565b60405180910390f35b610082610194565b60405161008f9190610847565b60405180910390f35b6100a0610222565b6040516100ad9190610847565b60405180910390f35b6100d060048036038101906100cb91906109b2565b6102b4565b6040516100dd9190610847565b60405180910390f35b61010060048036038101906100fb9190610ae1565b610328565b005b60606004805461011190610c45565b80601f016020809104026020016040519081016040528092919081815260200182805461013d90610c45565b801561018a5780601f1061015f5761010080835404028352916020019161018a565b820191906000526020600020905b81548152906001019060200180831161016d57829003601f168201915b5050505050905090565b600480546101a190610c45565b80601f01602080910402602001604051908101604052809291908181526020018280546101cd90610c45565b801561021a5780601f106101ef5761010080835404028352916020019161021a565b820191906000526020600020905b8154815290600101906020018083116101fd57829003601f168201915b505050505081565b60606004805461023190610c45565b80601f016020809104026020016040519081016040528092919081815260200182805461025d90610c45565b80156102aa5780601f1061027f576101008083540402835291602001916102aa565b820191906000526020600020905b81548152906001019060200180831161028d57829003601f168201915b5050505050905090565b606081600690805190602001906102cc929190610647565b506102d561056e565b600790805190602001906102ea9291906106cd565b506040518060400160405280601181526020017f536f6c64205375636365737366756c6c790000000000000000000000000000008152509050919050565b836040516020016103399190610cb2565b60405160208183030381529060405280519060200120866040516020016103609190610cb2565b604051602081830303815290604052805190602001201480156103ce57508260405160200161038f9190610cb2565b60405160208183030381529060405280519060200120856040516020016103b69190610cb2565b60405160208183030381529060405280519060200120145b156104f65785600090805190602001906103e9929190610647565b508460019080519060200190610400929190610647565b508360029080519060200190610417929190610647565b50826003908051906020019061042e929190610647565b508160049080519060200190610445929190610647565b5060005b81518110156104bb57600582828151811061046757610466610cc9565b5b60200260200101519080600181540180825580915050600190039060005260206000200160009091909190915090805190602001906104a7929190610647565b5080806104b390610d31565b915050610449565b507f166b96a382dc3abc86ba052ca9c020cfd7022d2d3059e868918a3d20779e41cc6040516104e990610deb565b60405180910390a1610566565b7ffd5de27667e5407df5be0b6efb7f86ae8c40433040399a5e4d36a46ccc50638d60405161052390610e7d565b60405180910390a16040517f08c379a000000000000000000000000000000000000000000000000000000000815260040161055d90610ee9565b60405180910390fd5b505050505050565b60606005805480602002602001604051908101604052809291908181526020016000905b8282101561063e5783829060005260206000200180546105b190610c45565b80601f01602080910402602001604051908101604052809291908181526020018280546105dd90610c45565b801561062a5780601f106105ff5761010080835404028352916020019161062a565b820191906000526020600020905b81548152906001019060200180831161060d57829003601f168201915b505050505081526020019060010190610592565b50505050905090565b82805461065390610c45565b90600052602060002090601f01602090048101928261067557600085556106bc565b82601f1061068e57805160ff19168380011785556106bc565b828001600101855582156106bc579182015b828111156106bb5782518255916020019190600101906106a0565b5b5090506106c9919061072d565b5090565b82805482825590600052602060002090810192821561071c579160200282015b8281111561071b57825182908051906020019061070b929190610647565b50916020019190600101906106ed565b5b509050610729919061074a565b5090565b5b8082111561074657600081600090555060010161072e565b5090565b5b8082111561076a5760008181610761919061076e565b5060010161074b565b5090565b50805461077a90610c45565b6000825580601f1061078c57506107ab565b601f0160209004906000526020600020908101906107aa919061072d565b5b50565b600081519050919050565b600082825260208201905092915050565b60005b838110156107e85780820151818401526020810190506107cd565b838111156107f7576000848401525b50505050565b6000601f19601f8301169050919050565b6000610819826107ae565b61082381856107b9565b93506108338185602086016107ca565b61083c816107fd565b840191505092915050565b60006020820190508181036000830152610861818461080e565b905092915050565b6000604051905090565b600080fd5b600080fd5b600080fd5b600080fd5b7f4e487b7100000000000000000000000000000000000000000000000000000000600052604160045260246000fd5b6108bf826107fd565b810181811067ffffffffffffffff821117156108de576108dd610887565b5b80604052505050565b60006108f1610869565b90506108fd82826108b6565b919050565b600067ffffffffffffffff82111561091d5761091c610887565b5b610926826107fd565b9050602081019050919050565b82818337600083830152505050565b600061095561095084610902565b6108e7565b90508281526020810184848401111561097157610970610882565b5b61097c848285610933565b509392505050565b600082601f8301126109995761099861087d565b5b81356109a9848260208601610942565b91505092915050565b6000602082840312156109c8576109c7610873565b5b600082013567ffffffffffffffff8111156109e6576109e5610878565b5b6109f284828501610984565b91505092915050565b600067ffffffffffffffff821115610a1657610a15610887565b5b602082029050602081019050919050565b600080fd5b6000610a3f610a3a846109fb565b6108e7565b90508083825260208201905060208402830185811115610a6257610a61610a27565b5b835b81811015610aa957803567ffffffffffffffff811115610a8757610a8661087d565b5b808601610a948982610984565b85526020850194505050602081019050610a64565b5050509392505050565b600082601f830112610ac857610ac761087d565b5b8135610ad8848260208601610a2c565b91505092915050565b60008060008060008060c08789031215610afe57610afd610873565b5b600087013567ffffffffffffffff811115610b1c57610b1b610878565b5b610b2889828a01610984565b965050602087013567ffffffffffffffff811115610b4957610b48610878565b5b610b5589828a01610984565b955050604087013567ffffffffffffffff811115610b7657610b75610878565b5b610b8289828a01610984565b945050606087013567ffffffffffffffff811115610ba357610ba2610878565b5b610baf89828a01610984565b935050608087013567ffffffffffffffff811115610bd057610bcf610878565b5b610bdc89828a01610984565b92505060a087013567ffffffffffffffff811115610bfd57610bfc610878565b5b610c0989828a01610ab3565b9150509295509295509295565b7f4e487b7100000000000000000000000000000000000000000000000000000000600052602260045260246000fd5b60006002820490506001821680610c5d57607f821691505b602082108103610c7057610c6f610c16565b5b50919050565b600081905092915050565b6000610c8c826107ae565b610c968185610c76565b9350610ca68185602086016107ca565b80840191505092915050565b6000610cbe8284610c81565b915081905092915050565b7f4e487b7100000000000000000000000000000000000000000000000000000000600052603260045260246000fd5b7f4e487b7100000000000000000000000000000000000000000000000000000000600052601160045260246000fd5b6000819050919050565b6000610d3c82610d27565b91507fffffffffffffffffffffffffffffffffffffffffffffffffffffffffffffffff8203610d6e57610d6d610cf8565b5b600182019050919050565b7f50726f6f66732076657269666965642e205472616e73616374696f6e2073756360008201527f6365737366756c2e000000000000000000000000000000000000000000000000602082015250565b6000610dd56028836107b9565b9150610de082610d79565b604082019050919050565b60006020820190508181036000830152610e0481610dc8565b9050919050565b7f50726f6f66732061726520696e76616c69642e205472616e73616374696f6e2060008201527f72657665727465642e0000000000000000000000000000000000000000000000602082015250565b6000610e676029836107b9565b9150610e7282610e0b565b604082019050919050565b60006020820190508181036000830152610e9681610e5a565b9050919050565b7f50726f6f667320696e76616c6964000000000000000000000000000000000000600082015250565b6000610ed3600e836107b9565b9150610ede82610e9d565b602082019050919050565b60006020820190508181036000830152610f0281610ec6565b905091905056fea2646970667358221220a1f826154f55af600f284aaf418aa160931bd1ce2d95d0f8a4046d5dbb43495964736f6c634300080d0033",
  "immutableReferences": {},
  "source": "// SPDX-License-Identifier: MIT\npragma solidity >=0.8.2 <0.9.0;\n\nimport \"../contracts/ZeroKnowledgeContract.sol\";\n\ncontract AIMarketPlace is ZeroKnowledgeContract {\n\n    string soldModel;\n    string[] private soldModelMod;\n\n    function getModels() public view returns (string memory) {\n        return model;\n    } \n\n    function buyModel(string memory _name) public returns(string memory){\n        soldModel = _name;\n        soldModelMod = getMods();\n        return \"Sold Successfully\";\n    }\n   \n}\n",
  "sourcePath": "/home/mktetts/Desktop/hackathon/smartcontract/contracts/AIMarketPlace.sol",
  "compiler": {
    "name": "solc",
    "version": "0.8.13+commit.abaa5c0e.Emscripten.clang"
  },
  "schemaVersion": "3.4.16",
  "updatedAt": "2023-09-24T14:41:04.899Z",
  "networkType": "ethereum",
  "devdoc": {
    "kind": "dev",
    "methods": {},
    "version": 1
  },
  "userdoc": {
    "kind": "user",
    "methods": {},
    "version": 1
  }
}