{
  "contractName": "ZeroKnowledgeContract",
  "abi": [
    {
      "anonymous": false,
      "inputs": [
        {
          "indexed": false,
          "internalType": "string",
          "name": "message",
          "type": "string"
        }
      ],
      "name": "Failure",
      "type": "event"
    },
    {
      "anonymous": false,
      "inputs": [
        {
          "indexed": false,
          "internalType": "string",
          "name": "message",
          "type": "string"
        }
      ],
      "name": "Success",
      "type": "event"
    },
    {
      "inputs": [],
      "name": "model",
      "outputs": [
        {
          "internalType": "string",
          "name": "",
          "type": "string"
        }
      ],
      "stateMutability": "view",
      "type": "function",
      "constant": true
    },
    {
      "inputs": [
        {
          "internalType": "string",
          "name": "n1",
          "type": "string"
        },
        {
          "internalType": "string",
          "name": "n2",
          "type": "string"
        },
        {
          "internalType": "string",
          "name": "n3",
          "type": "string"
        },
        {
          "internalType": "string",
          "name": "n4",
          "type": "string"
        },
        {
          "internalType": "string",
          "name": "model_name",
          "type": "string"
        },
        {
          "internalType": "string[]",
          "name": "_mods",
          "type": "string[]"
        }
      ],
      "name": "verifyProofs",
      "outputs": [],
      "stateMutability": "nonpayable",
      "type": "function"
    },
    {
      "inputs": [],
      "name": "getModelName",
      "outputs": [
        {
          "internalType": "string",
          "name": "",
          "type": "string"
        }
      ],
      "stateMutability": "view",
      "type": "function",
      "constant": true
    }
  ],
  "bytecode": "0x608060405234801561001057600080fd5b50610bef806100206000396000f3fe608060405234801561001057600080fd5b50600436106100415760003560e01c80630ad9d0521461004657806371b83e0014610064578063cd4412e614610082575b600080fd5b61004e61009e565b60405161005b9190610540565b60405180910390f35b61006c61012c565b6040516100799190610540565b60405180910390f35b61009c60048036038101906100979190610791565b6101be565b005b600480546100ab906108f5565b80601f01602080910402602001604051908101604052809291908181526020018280546100d7906108f5565b80156101245780601f106100f957610100808354040283529160200191610124565b820191906000526020600020905b81548152906001019060200180831161010757829003601f168201915b505050505081565b60606004805461013b906108f5565b80601f0160208091040260200160405190810160405280929190818152602001828054610167906108f5565b80156101b45780601f10610189576101008083540402835291602001916101b4565b820191906000526020600020905b81548152906001019060200180831161019757829003601f168201915b5050505050905090565b836040516020016101cf9190610962565b60405160208183030381529060405280519060200120866040516020016101f69190610962565b604051602081830303815290604052805190602001201480156102645750826040516020016102259190610962565b604051602081830303815290604052805190602001208560405160200161024c9190610962565b60405160208183030381529060405280519060200120145b1561038c57856000908051906020019061027f929190610404565b508460019080519060200190610296929190610404565b5083600290805190602001906102ad929190610404565b5082600390805190602001906102c4929190610404565b5081600490805190602001906102db929190610404565b5060005b81518110156103515760058282815181106102fd576102fc610979565b5b602002602001015190806001815401808255809150506001900390600052602060002001600090919091909150908051906020019061033d929190610404565b508080610349906109e1565b9150506102df565b507f166b96a382dc3abc86ba052ca9c020cfd7022d2d3059e868918a3d20779e41cc60405161037f90610a9b565b60405180910390a16103fc565b7ffd5de27667e5407df5be0b6efb7f86ae8c40433040399a5e4d36a46ccc50638d6040516103b990610b2d565b60405180910390a16040517f08c379a00000000000000000000000000000000000000000000000000000000081526004016103f390610b99565b60405180910390fd5b505050505050565b828054610410906108f5565b90600052602060002090601f0160209004810192826104325760008555610479565b82601f1061044b57805160ff1916838001178555610479565b82800160010185558215610479579182015b8281111561047857825182559160200191906001019061045d565b5b509050610486919061048a565b5090565b5b808211156104a357600081600090555060010161048b565b5090565b600081519050919050565b600082825260208201905092915050565b60005b838110156104e15780820151818401526020810190506104c6565b838111156104f0576000848401525b50505050565b6000601f19601f8301169050919050565b6000610512826104a7565b61051c81856104b2565b935061052c8185602086016104c3565b610535816104f6565b840191505092915050565b6000602082019050818103600083015261055a8184610507565b905092915050565b6000604051905090565b600080fd5b600080fd5b600080fd5b600080fd5b7f4e487b7100000000000000000000000000000000000000000000000000000000600052604160045260246000fd5b6105b8826104f6565b810181811067ffffffffffffffff821117156105d7576105d6610580565b5b80604052505050565b60006105ea610562565b90506105f682826105af565b919050565b600067ffffffffffffffff82111561061657610615610580565b5b61061f826104f6565b9050602081019050919050565b82818337600083830152505050565b600061064e610649846105fb565b6105e0565b90508281526020810184848401111561066a5761066961057b565b5b61067584828561062c565b509392505050565b600082601f83011261069257610691610576565b5b81356106a284826020860161063b565b91505092915050565b600067ffffffffffffffff8211156106c6576106c5610580565b5b602082029050602081019050919050565b600080fd5b60006106ef6106ea846106ab565b6105e0565b90508083825260208201905060208402830185811115610712576107116106d7565b5b835b8181101561075957803567ffffffffffffffff81111561073757610736610576565b5b808601610744898261067d565b85526020850194505050602081019050610714565b5050509392505050565b600082601f83011261077857610777610576565b5b81356107888482602086016106dc565b91505092915050565b60008060008060008060c087890312156107ae576107ad61056c565b5b600087013567ffffffffffffffff8111156107cc576107cb610571565b5b6107d889828a0161067d565b965050602087013567ffffffffffffffff8111156107f9576107f8610571565b5b61080589828a0161067d565b955050604087013567ffffffffffffffff81111561082657610825610571565b5b61083289828a0161067d565b945050606087013567ffffffffffffffff81111561085357610852610571565b5b61085f89828a0161067d565b935050608087013567ffffffffffffffff8111156108805761087f610571565b5b61088c89828a0161067d565b92505060a087013567ffffffffffffffff8111156108ad576108ac610571565b5b6108b989828a01610763565b9150509295509295509295565b7f4e487b7100000000000000000000000000000000000000000000000000000000600052602260045260246000fd5b6000600282049050600182168061090d57607f821691505b6020821081036109205761091f6108c6565b5b50919050565b600081905092915050565b600061093c826104a7565b6109468185610926565b93506109568185602086016104c3565b80840191505092915050565b600061096e8284610931565b915081905092915050565b7f4e487b7100000000000000000000000000000000000000000000000000000000600052603260045260246000fd5b7f4e487b7100000000000000000000000000000000000000000000000000000000600052601160045260246000fd5b6000819050919050565b60006109ec826109d7565b91507fffffffffffffffffffffffffffffffffffffffffffffffffffffffffffffffff8203610a1e57610a1d6109a8565b5b600182019050919050565b7f50726f6f66732076657269666965642e205472616e73616374696f6e2073756360008201527f6365737366756c2e000000000000000000000000000000000000000000000000602082015250565b6000610a856028836104b2565b9150610a9082610a29565b604082019050919050565b60006020820190508181036000830152610ab481610a78565b9050919050565b7f50726f6f66732061726520696e76616c69642e205472616e73616374696f6e2060008201527f72657665727465642e0000000000000000000000000000000000000000000000602082015250565b6000610b176029836104b2565b9150610b2282610abb565b604082019050919050565b60006020820190508181036000830152610b4681610b0a565b9050919050565b7f50726f6f667320696e76616c6964000000000000000000000000000000000000600082015250565b6000610b83600e836104b2565b9150610b8e82610b4d565b602082019050919050565b60006020820190508181036000830152610bb281610b76565b905091905056fea2646970667358221220e5c0e47fb2a207813e1d38f4db85a02401630630d57467b9a2589f7a92b4870e64736f6c634300080d0033",
  "immutableReferences": {},
  "source": "// SPDX-License-Identifier: MIT\npragma solidity >=0.8.2 <0.9.0;\n\ncontract ZeroKnowledgeContract {\n\n    string private consensus_mod;\n    string private consensus_mask;\n    string private peer_mod;\n    string private peer_mask;\n    string public model;\n    string[] private mods;\n    event Success(string message);\n    event Failure(string message);\n\n    \n\n    function verifyProofs(string memory n1,  string memory n2, string memory n3, string memory n4, string memory model_name, \n        string[] memory _mods) public {\n        \n        if ((keccak256(abi.encodePacked(n1)) == keccak256(abi.encodePacked(n3))) && (keccak256(abi.encodePacked(n2)) == keccak256(abi.encodePacked(n4)))) {\n            consensus_mod = n1;\n            consensus_mask = n2;\n            peer_mod  = n3;\n            peer_mask = n4;\n            model = model_name;\n            for (uint256 i = 0; i < _mods.length; i++) {\n                mods.push(_mods[i]);\n            }\n            emit Success(\"Proofs verified. Transaction successful.\");\n        } else {\n            emit Failure(\"Proofs are invalid. Transaction reverted.\");\n            revert(\"Proofs invalid\");\n        }\n    }\n\n    function getModelName() public view returns(string memory){\n        return model;\n    }\n    function getMods() internal view returns (string[] memory) {\n        return mods;\n    }\n}\n",
  "sourcePath": "/home/mktetts/Desktop/hackathon/smartcontract/contracts/ZeroKnowledgeContract.sol",
  "compiler": {
    "name": "solc",
    "version": "0.8.13+commit.abaa5c0e.Emscripten.clang"
  },
  "schemaVersion": "3.4.16",
  "updatedAt": "2023-09-24T14:41:03.769Z",
  "networkType": "ethereum",
  "devdoc": {
    "kind": "dev",
    "methods": {},
    "version": 1
  },
  "userdoc": {
    "kind": "user",
    "methods": {},
    "version": 1
  }
}